{
  "contractName": "EduchainMain",
  "abi": [
    {
      "anonymous": false,
      "inputs": [
        {
          "indexed": false,
          "internalType": "uint256",
          "name": "id",
          "type": "uint256"
        },
        {
          "indexed": false,
          "internalType": "string",
          "name": "course",
          "type": "string"
        },
        {
          "indexed": false,
          "internalType": "string",
          "name": "subject",
          "type": "string"
        },
        {
          "indexed": false,
          "internalType": "address",
          "name": "uploader",
          "type": "address"
        }
      ],
      "name": "addedNewContent",
      "type": "event"
    },
    {
      "inputs": [],
      "name": "contentCount",
      "outputs": [
        {
          "internalType": "uint256",
          "name": "",
          "type": "uint256"
        }
      ],
      "stateMutability": "view",
      "type": "function"
    },
    {
      "inputs": [
        {
          "internalType": "uint256",
          "name": "",
          "type": "uint256"
        }
      ],
      "name": "contents",
      "outputs": [
        {
          "internalType": "string",
          "name": "course",
          "type": "string"
        },
        {
          "internalType": "string",
          "name": "subject",
          "type": "string"
        },
        {
          "internalType": "string",
          "name": "file",
          "type": "string"
        },
        {
          "internalType": "address",
          "name": "uploader",
          "type": "address"
        }
      ],
      "stateMutability": "view",
      "type": "function"
    },
    {
      "inputs": [
        {
          "internalType": "string",
          "name": "_file",
          "type": "string"
        }
      ],
      "name": "contentExists",
      "outputs": [
        {
          "internalType": "bool",
          "name": "",
          "type": "bool"
        }
      ],
      "stateMutability": "view",
      "type": "function"
    },
    {
      "inputs": [
        {
          "internalType": "string",
          "name": "_course",
          "type": "string"
        },
        {
          "internalType": "string",
          "name": "_subject",
          "type": "string"
        },
        {
          "internalType": "string",
          "name": "_file",
          "type": "string"
        }
      ],
      "name": "addContent",
      "outputs": [],
      "stateMutability": "nonpayable",
      "type": "function"
    }
  ],
  "bytecode": "0x608060405234801561001057600080fd5b50610d2f806100206000396000f3fe608060405234801561001057600080fd5b506004361061004c5760003560e01c80637a211063146100515780638bccaed514610081578063b5ecf9121461009d578063cc459696146100d0575b600080fd5b61006b6004803603810190610066919061067c565b6100ee565b6040516100789190610907565b60405180910390f35b61009b600480360381019061009691906106bd565b610187565b005b6100b760048036038101906100b29190610754565b61036e565b6040516100c79493929190610922565b60405180910390f35b6100d8610556565b6040516100e591906109bc565b60405180910390f35b60008060005b60005481101561017d576001600082815260200190815260200160002060020160405160200161012491906108f0565b604051602081830303815290604052805190602001208460405160200161014b91906108d9565b60405160208183030381529060405280519060200120141561016c57600191505b8061017690610ba9565b90506100f4565b5080915050919050565b60008351118015610199575060008151115b6101d8576040517f08c379a00000000000000000000000000000000000000000000000000000000081526004016101cf9061099c565b60405180910390fd5b600015156101e5826100ee565b151514610227576040517f08c379a000000000000000000000000000000000000000000000000000000000815260040161021e9061097c565b60405180910390fd5b60405180608001604052808481526020018381526020018281526020013373ffffffffffffffffffffffffffffffffffffffff168152506001600080548152602001908152602001600020600082015181600001908051906020019061028e92919061055c565b5060208201518160010190805190602001906102ab92919061055c565b5060408201518160020190805190602001906102c892919061055c565b5060608201518160030160006101000a81548173ffffffffffffffffffffffffffffffffffffffff021916908373ffffffffffffffffffffffffffffffffffffffff1602179055509050507feba3030cce19df68f97d6ca18a28b304b6feb7f71803f02ea1ae0bbb5fbd1a5860005484843360405161034a94939291906109d7565b60405180910390a160008081548092919061036490610ba9565b9190505550505050565b600160205280600052604060002060009150905080600001805461039190610b46565b80601f01602080910402602001604051908101604052809291908181526020018280546103bd90610b46565b801561040a5780601f106103df5761010080835404028352916020019161040a565b820191906000526020600020905b8154815290600101906020018083116103ed57829003601f168201915b50505050509080600101805461041f90610b46565b80601f016020809104026020016040519081016040528092919081815260200182805461044b90610b46565b80156104985780601f1061046d57610100808354040283529160200191610498565b820191906000526020600020905b81548152906001019060200180831161047b57829003601f168201915b5050505050908060020180546104ad90610b46565b80601f01602080910402602001604051908101604052809291908181526020018280546104d990610b46565b80156105265780601f106104fb57610100808354040283529160200191610526565b820191906000526020600020905b81548152906001019060200180831161050957829003601f168201915b5050505050908060030160009054906101000a900473ffffffffffffffffffffffffffffffffffffffff16905084565b60005481565b82805461056890610b46565b90600052602060002090601f01602090048101928261058a57600085556105d1565b82601f106105a357805160ff19168380011785556105d1565b828001600101855582156105d1579182015b828111156105d05782518255916020019190600101906105b5565b5b5090506105de91906105e2565b5090565b5b808211156105fb5760008160009055506001016105e3565b5090565b600061061261060d84610a4f565b610a2a565b90508281526020810184848401111561062a57600080fd5b610635848285610b04565b509392505050565b600082601f83011261064e57600080fd5b813561065e8482602086016105ff565b91505092915050565b60008135905061067681610ce2565b92915050565b60006020828403121561068e57600080fd5b600082013567ffffffffffffffff8111156106a857600080fd5b6106b48482850161063d565b91505092915050565b6000806000606084860312156106d257600080fd5b600084013567ffffffffffffffff8111156106ec57600080fd5b6106f88682870161063d565b935050602084013567ffffffffffffffff81111561071557600080fd5b6107218682870161063d565b925050604084013567ffffffffffffffff81111561073e57600080fd5b61074a8682870161063d565b9150509250925092565b60006020828403121561076657600080fd5b600061077484828501610667565b91505092915050565b61078681610abc565b82525050565b61079581610ace565b82525050565b60006107a682610a95565b6107b08185610aa0565b93506107c0818560208601610b13565b6107c981610c7f565b840191505092915050565b60006107df82610a95565b6107e98185610ab1565b93506107f9818560208601610b13565b80840191505092915050565b6000815461081281610b46565b61081c8186610ab1565b9450600182166000811461083757600181146108485761087b565b60ff1983168652818601935061087b565b61085185610a80565b60005b8381101561087357815481890152600182019150602081019050610854565b838801955050505b50505092915050565b6000610891601683610aa0565b915061089c82610c90565b602082019050919050565b60006108b4600f83610aa0565b91506108bf82610cb9565b602082019050919050565b6108d381610afa565b82525050565b60006108e582846107d4565b915081905092915050565b60006108fc8284610805565b915081905092915050565b600060208201905061091c600083018461078c565b92915050565b6000608082019050818103600083015261093c818761079b565b90508181036020830152610950818661079b565b90508181036040830152610964818561079b565b9050610973606083018461077d565b95945050505050565b6000602082019050818103600083015261099581610884565b9050919050565b600060208201905081810360008301526109b5816108a7565b9050919050565b60006020820190506109d160008301846108ca565b92915050565b60006080820190506109ec60008301876108ca565b81810360208301526109fe818661079b565b90508181036040830152610a12818561079b565b9050610a21606083018461077d565b95945050505050565b6000610a34610a45565b9050610a408282610b78565b919050565b6000604051905090565b600067ffffffffffffffff821115610a6a57610a69610c50565b5b610a7382610c7f565b9050602081019050919050565b60008190508160005260206000209050919050565b600081519050919050565b600082825260208201905092915050565b600081905092915050565b6000610ac782610ada565b9050919050565b60008115159050919050565b600073ffffffffffffffffffffffffffffffffffffffff82169050919050565b6000819050919050565b82818337600083830152505050565b60005b83811015610b31578082015181840152602081019050610b16565b83811115610b40576000848401525b50505050565b60006002820490506001821680610b5e57607f821691505b60208210811415610b7257610b71610c21565b5b50919050565b610b8182610c7f565b810181811067ffffffffffffffff82111715610ba057610b9f610c50565b5b80604052505050565b6000610bb482610afa565b91507fffffffffffffffffffffffffffffffffffffffffffffffffffffffffffffffff821415610be757610be6610bf2565b5b600182019050919050565b7f4e487b7100000000000000000000000000000000000000000000000000000000600052601160045260246000fd5b7f4e487b7100000000000000000000000000000000000000000000000000000000600052602260045260246000fd5b7f4e487b7100000000000000000000000000000000000000000000000000000000600052604160045260246000fd5b6000601f19601f8301169050919050565b7f436f6e74656e7420616c72656164792065786973747300000000000000000000600082015250565b7f4d697373696e672064657461696c730000000000000000000000000000000000600082015250565b610ceb81610afa565b8114610cf657600080fd5b5056fea2646970667358221220618664ae763ce4127ec3d4ecf205411d7c21de084339c5276fe9d255dbae2f2564736f6c63430008010033",
  "immutableReferences": {},
  "source": "// SPDX-License-Identifier: MIT\r\npragma solidity ^0.8.0;\r\n\r\ncontract EduchainMain {\r\n\r\n    uint public contentCount;\r\n    \r\n    struct Content {\r\n        string course;\r\n        string subject;\r\n        string file;\r\n        address uploader;\r\n    }\r\n\r\n    mapping(uint => Content) public contents;\r\n\r\n    event addedNewContent(\r\n        uint id,\r\n        string course,\r\n        string subject,\r\n        address uploader\r\n    );\r\n\r\n    function contentExists(string memory _file)\r\n        public\r\n        view\r\n        returns(bool)\r\n    {\r\n        bool fileExists;\r\n        for(uint i = 0; i < contentCount; ++i) {\r\n            if(keccak256(abi.encodePacked(_file)) == keccak256(abi.encodePacked(contents[i].file))) {\r\n                fileExists = true;\r\n            }\r\n        }\r\n        return fileExists;\r\n    }\r\n\r\n    function addContent(\r\n        string memory _course, \r\n        string memory _subject,\r\n        string memory _file\r\n    ) \r\n        external \r\n    {\r\n        require(bytes(_course).length > 0 && bytes(_file).length > 0, \"Missing details\");\r\n        require(contentExists(_file) == false, \"Content already exists\");\r\n        contents[contentCount] = Content(_course, _subject, _file, msg.sender);\r\n        emit addedNewContent(contentCount, _course, _subject, msg.sender);\r\n        contentCount++;\r\n    }\r\n}",
  "sourcePath": "D:/Hackathons/Devfolio online/Amithon/test/contracts/EduchainMain.sol",
  "compiler": {
    "name": "solc",
    "version": "0.8.1+commit.df193b15.Emscripten.clang"
  },
  "schemaVersion": "3.4.1",
  "updatedAt": "2022-01-24T13:44:58.200Z",
  "devdoc": {
    "kind": "dev",
    "methods": {},
    "version": 1
  },
  "userdoc": {
    "kind": "user",
    "methods": {},
    "version": 1
  }
}