{
  "contractName": "EduchainMain",
  "abi": [
    {
      "anonymous": false,
      "inputs": [
        {
          "indexed": true,
          "internalType": "address",
          "name": "previousOwner",
          "type": "address"
        },
        {
          "indexed": true,
          "internalType": "address",
          "name": "newOwner",
          "type": "address"
        }
      ],
      "name": "OwnershipTransferred",
      "type": "event"
    },
    {
      "anonymous": false,
      "inputs": [
        {
          "indexed": false,
          "internalType": "uint256",
          "name": "id",
          "type": "uint256"
        },
        {
          "indexed": false,
          "internalType": "string",
          "name": "course",
          "type": "string"
        },
        {
          "indexed": false,
          "internalType": "string",
          "name": "subject",
          "type": "string"
        },
        {
          "indexed": false,
          "internalType": "address",
          "name": "contributor",
          "type": "address"
        }
      ],
      "name": "addedNewContent",
      "type": "event"
    },
    {
      "inputs": [],
      "name": "contentCount",
      "outputs": [
        {
          "internalType": "uint256",
          "name": "",
          "type": "uint256"
        }
      ],
      "stateMutability": "view",
      "type": "function"
    },
    {
      "inputs": [
        {
          "internalType": "uint256",
          "name": "",
          "type": "uint256"
        }
      ],
      "name": "contents",
      "outputs": [
        {
          "internalType": "string",
          "name": "course",
          "type": "string"
        },
        {
          "internalType": "string",
          "name": "subject",
          "type": "string"
        },
        {
          "internalType": "string",
          "name": "file",
          "type": "string"
        },
        {
          "internalType": "address",
          "name": "contributor",
          "type": "address"
        }
      ],
      "stateMutability": "view",
      "type": "function"
    },
    {
      "inputs": [],
      "name": "owner",
      "outputs": [
        {
          "internalType": "address",
          "name": "",
          "type": "address"
        }
      ],
      "stateMutability": "view",
      "type": "function"
    },
    {
      "inputs": [],
      "name": "renounceOwnership",
      "outputs": [],
      "stateMutability": "nonpayable",
      "type": "function"
    },
    {
      "inputs": [
        {
          "internalType": "address",
          "name": "newOwner",
          "type": "address"
        }
      ],
      "name": "transferOwnership",
      "outputs": [],
      "stateMutability": "nonpayable",
      "type": "function"
    },
    {
      "inputs": [
        {
          "internalType": "string",
          "name": "_file",
          "type": "string"
        }
      ],
      "name": "getContributor",
      "outputs": [
        {
          "internalType": "address",
          "name": "",
          "type": "address"
        }
      ],
      "stateMutability": "view",
      "type": "function"
    },
    {
      "inputs": [
        {
          "internalType": "string",
          "name": "_file",
          "type": "string"
        }
      ],
      "name": "contentExists",
      "outputs": [
        {
          "internalType": "bool",
          "name": "",
          "type": "bool"
        }
      ],
      "stateMutability": "view",
      "type": "function"
    },
    {
      "inputs": [
        {
          "internalType": "address",
          "name": "_ECTaddress",
          "type": "address"
        }
      ],
      "name": "setECTAddress",
      "outputs": [],
      "stateMutability": "nonpayable",
      "type": "function"
    },
    {
      "inputs": [
        {
          "internalType": "string",
          "name": "_course",
          "type": "string"
        },
        {
          "internalType": "string",
          "name": "_subject",
          "type": "string"
        },
        {
          "internalType": "string",
          "name": "_file",
          "type": "string"
        }
      ],
      "name": "addContent",
      "outputs": [],
      "stateMutability": "nonpayable",
      "type": "function"
    }
  ],
  "bytecode": "0x608060405234801561001057600080fd5b5061002d61002261003260201b60201c565b61003a60201b60201c565b6100fe565b600033905090565b60008060009054906101000a900473ffffffffffffffffffffffffffffffffffffffff169050816000806101000a81548173ffffffffffffffffffffffffffffffffffffffff021916908373ffffffffffffffffffffffffffffffffffffffff1602179055508173ffffffffffffffffffffffffffffffffffffffff168173ffffffffffffffffffffffffffffffffffffffff167f8be0079c531659141344cd1fd0a4f28419497f9722a3daafe3b4186f6b6457e060405160405180910390a35050565b61149a8061010d6000396000f3fe608060405234801561001057600080fd5b50600436106100935760003560e01c80638bccaed5116100665780638bccaed51461011e5780638da5cb5b1461013a578063b5ecf91214610158578063cc4596961461018b578063f2fde38b146101a957610093565b806309fba099146100985780635bb5dc0d146100b4578063715018a6146100e45780637a211063146100ee575b600080fd5b6100b260048036038101906100ad9190610c10565b6101c5565b005b6100ce60048036038101906100c99190610c39565b610285565b6040516100db9190610f19565b60405180910390f35b6100ec610353565b005b61010860048036038101906101039190610c39565b6103db565b6040516101159190610f5d565b60405180910390f35b61013860048036038101906101339190610c7a565b610474565b005b610142610700565b60405161014f9190610f19565b60405180910390f35b610172600480360381019061016d9190610d11565b610729565b6040516101829493929190610f78565b60405180910390f35b610193610911565b6040516101a09190611052565b60405180910390f35b6101c360048036038101906101be9190610c10565b610917565b005b6101cd610a0f565b73ffffffffffffffffffffffffffffffffffffffff166101eb610700565b73ffffffffffffffffffffffffffffffffffffffff1614610241576040517f08c379a000000000000000000000000000000000000000000000000000000000815260040161023890611032565b60405180910390fd5b80600160006101000a81548173ffffffffffffffffffffffffffffffffffffffff021916908373ffffffffffffffffffffffffffffffffffffffff16021790555050565b60008060005b60025481101561034957600360008281526020019081526020016000206002016040516020016102bb9190610f02565b60405160208183030381529060405280519060200120846040516020016102e29190610eeb565b604051602081830303815290604052805190602001201415610338576003600082815260200190815260200160002060030160009054906101000a900473ffffffffffffffffffffffffffffffffffffffff1691505b8061034290611285565b905061028b565b5080915050919050565b61035b610a0f565b73ffffffffffffffffffffffffffffffffffffffff16610379610700565b73ffffffffffffffffffffffffffffffffffffffff16146103cf576040517f08c379a00000000000000000000000000000000000000000000000000000000081526004016103c690611032565b60405180910390fd5b6103d96000610a17565b565b60008060005b60025481101561046a57600360008281526020019081526020016000206002016040516020016104119190610f02565b60405160208183030381529060405280519060200120846040516020016104389190610eeb565b60405160208183030381529060405280519060200120141561045957600191505b8061046390611285565b90506103e1565b5080915050919050565b60008351118015610486575060008151115b6104c5576040517f08c379a00000000000000000000000000000000000000000000000000000000081526004016104bc90611012565b60405180910390fd5b600015156104d2826103db565b151514610514576040517f08c379a000000000000000000000000000000000000000000000000000000000815260040161050b90610fd2565b60405180910390fd5b60405180608001604052808481526020018381526020018281526020013373ffffffffffffffffffffffffffffffffffffffff16815250600360006002548152602001908152602001600020600082015181600001908051906020019061057c929190610adb565b506020820151816001019080519060200190610599929190610adb565b5060408201518160020190805190602001906105b6929190610adb565b5060608201518160030160006101000a81548173ffffffffffffffffffffffffffffffffffffffff021916908373ffffffffffffffffffffffffffffffffffffffff1602179055509050506002600081548092919061061490611285565b9190505550600160009054906101000a900473ffffffffffffffffffffffffffffffffffffffff1673ffffffffffffffffffffffffffffffffffffffff166340c10f1933670de0b6b3a76400006040518363ffffffff1660e01b815260040161067e929190610f34565b600060405180830381600087803b15801561069857600080fd5b505af11580156106ac573d6000803e3d6000fd5b505050507feba3030cce19df68f97d6ca18a28b304b6feb7f71803f02ea1ae0bbb5fbd1a5860016002546106e09190611152565b8484336040516106f3949392919061106d565b60405180910390a1505050565b60008060009054906101000a900473ffffffffffffffffffffffffffffffffffffffff16905090565b600360205280600052604060002060009150905080600001805461074c90611222565b80601f016020809104026020016040519081016040528092919081815260200182805461077890611222565b80156107c55780601f1061079a576101008083540402835291602001916107c5565b820191906000526020600020905b8154815290600101906020018083116107a857829003601f168201915b5050505050908060010180546107da90611222565b80601f016020809104026020016040519081016040528092919081815260200182805461080690611222565b80156108535780601f1061082857610100808354040283529160200191610853565b820191906000526020600020905b81548152906001019060200180831161083657829003601f168201915b50505050509080600201805461086890611222565b80601f016020809104026020016040519081016040528092919081815260200182805461089490611222565b80156108e15780601f106108b6576101008083540402835291602001916108e1565b820191906000526020600020905b8154815290600101906020018083116108c457829003601f168201915b5050505050908060030160009054906101000a900473ffffffffffffffffffffffffffffffffffffffff16905084565b60025481565b61091f610a0f565b73ffffffffffffffffffffffffffffffffffffffff1661093d610700565b73ffffffffffffffffffffffffffffffffffffffff1614610993576040517f08c379a000000000000000000000000000000000000000000000000000000000815260040161098a90611032565b60405180910390fd5b600073ffffffffffffffffffffffffffffffffffffffff168173ffffffffffffffffffffffffffffffffffffffff161415610a03576040517f08c379a00000000000000000000000000000000000000000000000000000000081526004016109fa90610ff2565b60405180910390fd5b610a0c81610a17565b50565b600033905090565b60008060009054906101000a900473ffffffffffffffffffffffffffffffffffffffff169050816000806101000a81548173ffffffffffffffffffffffffffffffffffffffff021916908373ffffffffffffffffffffffffffffffffffffffff1602179055508173ffffffffffffffffffffffffffffffffffffffff168173ffffffffffffffffffffffffffffffffffffffff167f8be0079c531659141344cd1fd0a4f28419497f9722a3daafe3b4186f6b6457e060405160405180910390a35050565b828054610ae790611222565b90600052602060002090601f016020900481019282610b095760008555610b50565b82601f10610b2257805160ff1916838001178555610b50565b82800160010185558215610b50579182015b82811115610b4f578251825591602001919060010190610b34565b5b509050610b5d9190610b61565b5090565b5b80821115610b7a576000816000905550600101610b62565b5090565b6000610b91610b8c846110e5565b6110c0565b905082815260208101848484011115610ba957600080fd5b610bb48482856111e0565b509392505050565b600081359050610bcb81611436565b92915050565b600082601f830112610be257600080fd5b8135610bf2848260208601610b7e565b91505092915050565b600081359050610c0a8161144d565b92915050565b600060208284031215610c2257600080fd5b6000610c3084828501610bbc565b91505092915050565b600060208284031215610c4b57600080fd5b600082013567ffffffffffffffff811115610c6557600080fd5b610c7184828501610bd1565b91505092915050565b600080600060608486031215610c8f57600080fd5b600084013567ffffffffffffffff811115610ca957600080fd5b610cb586828701610bd1565b935050602084013567ffffffffffffffff811115610cd257600080fd5b610cde86828701610bd1565b925050604084013567ffffffffffffffff811115610cfb57600080fd5b610d0786828701610bd1565b9150509250925092565b600060208284031215610d2357600080fd5b6000610d3184828501610bfb565b91505092915050565b610d4381611186565b82525050565b610d5281611198565b82525050565b610d61816111ce565b82525050565b6000610d728261112b565b610d7c8185611136565b9350610d8c8185602086016111ef565b610d958161135b565b840191505092915050565b6000610dab8261112b565b610db58185611147565b9350610dc58185602086016111ef565b80840191505092915050565b60008154610dde81611222565b610de88186611147565b94506001821660008114610e035760018114610e1457610e47565b60ff19831686528186019350610e47565b610e1d85611116565b60005b83811015610e3f57815481890152600182019150602081019050610e20565b838801955050505b50505092915050565b6000610e5d601683611136565b9150610e688261136c565b602082019050919050565b6000610e80602683611136565b9150610e8b82611395565b604082019050919050565b6000610ea3600f83611136565b9150610eae826113e4565b602082019050919050565b6000610ec6602083611136565b9150610ed18261140d565b602082019050919050565b610ee5816111c4565b82525050565b6000610ef78284610da0565b915081905092915050565b6000610f0e8284610dd1565b915081905092915050565b6000602082019050610f2e6000830184610d3a565b92915050565b6000604082019050610f496000830185610d3a565b610f566020830184610d58565b9392505050565b6000602082019050610f726000830184610d49565b92915050565b60006080820190508181036000830152610f928187610d67565b90508181036020830152610fa68186610d67565b90508181036040830152610fba8185610d67565b9050610fc96060830184610d3a565b95945050505050565b60006020820190508181036000830152610feb81610e50565b9050919050565b6000602082019050818103600083015261100b81610e73565b9050919050565b6000602082019050818103600083015261102b81610e96565b9050919050565b6000602082019050818103600083015261104b81610eb9565b9050919050565b60006020820190506110676000830184610edc565b92915050565b60006080820190506110826000830187610edc565b81810360208301526110948186610d67565b905081810360408301526110a88185610d67565b90506110b76060830184610d3a565b95945050505050565b60006110ca6110db565b90506110d68282611254565b919050565b6000604051905090565b600067ffffffffffffffff821115611100576110ff61132c565b5b6111098261135b565b9050602081019050919050565b60008190508160005260206000209050919050565b600081519050919050565b600082825260208201905092915050565b600081905092915050565b600061115d826111c4565b9150611168836111c4565b92508282101561117b5761117a6112ce565b5b828203905092915050565b6000611191826111a4565b9050919050565b60008115159050919050565b600073ffffffffffffffffffffffffffffffffffffffff82169050919050565b6000819050919050565b60006111d9826111c4565b9050919050565b82818337600083830152505050565b60005b8381101561120d5780820151818401526020810190506111f2565b8381111561121c576000848401525b50505050565b6000600282049050600182168061123a57607f821691505b6020821081141561124e5761124d6112fd565b5b50919050565b61125d8261135b565b810181811067ffffffffffffffff8211171561127c5761127b61132c565b5b80604052505050565b6000611290826111c4565b91507fffffffffffffffffffffffffffffffffffffffffffffffffffffffffffffffff8214156112c3576112c26112ce565b5b600182019050919050565b7f4e487b7100000000000000000000000000000000000000000000000000000000600052601160045260246000fd5b7f4e487b7100000000000000000000000000000000000000000000000000000000600052602260045260246000fd5b7f4e487b7100000000000000000000000000000000000000000000000000000000600052604160045260246000fd5b6000601f19601f8301169050919050565b7f436f6e74656e7420616c72656164792065786973747300000000000000000000600082015250565b7f4f776e61626c653a206e6577206f776e657220697320746865207a65726f206160008201527f6464726573730000000000000000000000000000000000000000000000000000602082015250565b7f4d697373696e672064657461696c730000000000000000000000000000000000600082015250565b7f4f776e61626c653a2063616c6c6572206973206e6f7420746865206f776e6572600082015250565b61143f81611186565b811461144a57600080fd5b50565b611456816111c4565b811461146157600080fd5b5056fea2646970667358221220185c4963a99b5ea700ad3bb3af0ec23577d559376e6e73de750a2285887166f764736f6c63430008010033",
  "immutableReferences": {},
  "source": "// SPDX-License-Identifier: MIT\r\npragma solidity ^0.8.0;\r\n\r\nimport \"@openzeppelin/contracts/access/Ownable.sol\";\r\n\r\ninterface IECToken {\r\n    function mint(address to, uint amount) external;\r\n}\r\n\r\ncontract EduchainMain is Ownable {\r\n\r\n    address ECTaddress;\r\n    uint public contentCount;\r\n    \r\n    struct Content {\r\n        string course;\r\n        string subject;\r\n        string file;\r\n        address contributor;\r\n    }\r\n\r\n    mapping(uint => Content) public contents;\r\n\r\n    event addedNewContent(\r\n        uint id,\r\n        string course,\r\n        string subject,\r\n        address contributor\r\n    );\r\n\r\n    function getContributor(string memory _file) \r\n        public\r\n        view\r\n        returns(address)\r\n    {\r\n        address contributor;\r\n        for(uint i = 0; i < contentCount; ++i) {\r\n            if(keccak256(abi.encodePacked(_file)) == keccak256(abi.encodePacked(contents[i].file))) {\r\n                contributor = contents[i].contributor;\r\n            }\r\n        }\r\n        return contributor;\r\n    }\r\n\r\n    function contentExists(string memory _file)\r\n        public\r\n        view\r\n        returns(bool)\r\n    {\r\n        bool fileExists;\r\n        for(uint i = 0; i < contentCount; ++i) {\r\n            if(keccak256(abi.encodePacked(_file)) == keccak256(abi.encodePacked(contents[i].file))) {\r\n                fileExists = true;\r\n            }\r\n        }\r\n        return fileExists;\r\n    }\r\n\r\n    function setECTAddress(address _ECTaddress) external onlyOwner {\r\n        ECTaddress = _ECTaddress;\r\n    }\r\n\r\n    function addContent(\r\n        string memory _course, \r\n        string memory _subject,\r\n        string memory _file\r\n    ) \r\n        external \r\n    {\r\n        require(bytes(_course).length > 0 && bytes(_file).length > 0, \"Missing details\");\r\n        require(contentExists(_file) == false, \"Content already exists\");\r\n        contents[contentCount] = Content(_course, _subject, _file, msg.sender);\r\n        contentCount++;\r\n        IECToken(ECTaddress).mint(msg.sender, 1 ether);\r\n        emit addedNewContent(contentCount-1, _course, _subject, msg.sender);\r\n    }\r\n}\r\n",
  "sourcePath": "D:/Hackathons/Devfolio online/Amithon/test/contracts/EduchainMain.sol",
  "compiler": {
    "name": "solc",
    "version": "0.8.1+commit.df193b15.Emscripten.clang"
  },
  "schemaVersion": "3.4.1",
  "updatedAt": "2022-01-25T13:45:28.809Z",
  "devdoc": {
    "kind": "dev",
    "methods": {
      "owner()": {
        "details": "Returns the address of the current owner."
      },
      "renounceOwnership()": {
        "details": "Leaves the contract without owner. It will not be possible to call `onlyOwner` functions anymore. Can only be called by the current owner. NOTE: Renouncing ownership will leave the contract without an owner, thereby removing any functionality that is only available to the owner."
      },
      "transferOwnership(address)": {
        "details": "Transfers ownership of the contract to a new account (`newOwner`). Can only be called by the current owner."
      }
    },
    "version": 1
  },
  "userdoc": {
    "kind": "user",
    "methods": {},
    "version": 1
  }
}