{
  "contractName": "EduchainMain",
  "abi": [
    {
      "anonymous": false,
      "inputs": [
        {
          "indexed": false,
          "internalType": "uint256",
          "name": "id",
          "type": "uint256"
        },
        {
          "indexed": false,
          "internalType": "string",
          "name": "course",
          "type": "string"
        },
        {
          "indexed": false,
          "internalType": "string",
          "name": "subject",
          "type": "string"
        },
        {
          "indexed": false,
          "internalType": "address",
          "name": "uploader",
          "type": "address"
        }
      ],
      "name": "addedNewContent",
      "type": "event"
    },
    {
      "inputs": [],
      "name": "contentCount",
      "outputs": [
        {
          "internalType": "uint256",
          "name": "",
          "type": "uint256"
        }
      ],
      "stateMutability": "view",
      "type": "function"
    },
    {
      "inputs": [
        {
          "internalType": "uint256",
          "name": "",
          "type": "uint256"
        }
      ],
      "name": "contents",
      "outputs": [
        {
          "internalType": "string",
          "name": "course",
          "type": "string"
        },
        {
          "internalType": "string",
          "name": "subject",
          "type": "string"
        },
        {
          "internalType": "string",
          "name": "file",
          "type": "string"
        },
        {
          "internalType": "address",
          "name": "uploader",
          "type": "address"
        }
      ],
      "stateMutability": "view",
      "type": "function"
    },
    {
      "inputs": [
        {
          "internalType": "string",
          "name": "_file",
          "type": "string"
        }
      ],
      "name": "getUploader",
      "outputs": [
        {
          "internalType": "address",
          "name": "",
          "type": "address"
        }
      ],
      "stateMutability": "view",
      "type": "function"
    },
    {
      "inputs": [
        {
          "internalType": "string",
          "name": "_file",
          "type": "string"
        }
      ],
      "name": "contentExists",
      "outputs": [
        {
          "internalType": "bool",
          "name": "",
          "type": "bool"
        }
      ],
      "stateMutability": "view",
      "type": "function"
    },
    {
      "inputs": [
        {
          "internalType": "string",
          "name": "_course",
          "type": "string"
        },
        {
          "internalType": "string",
          "name": "_subject",
          "type": "string"
        },
        {
          "internalType": "string",
          "name": "_file",
          "type": "string"
        }
      ],
      "name": "addContent",
      "outputs": [],
      "stateMutability": "nonpayable",
      "type": "function"
    }
  ],
  "bytecode": "0x608060405234801561001057600080fd5b50610e53806100206000396000f3fe608060405234801561001057600080fd5b50600436106100575760003560e01c8063679806911461005c5780637a2110631461008c5780638bccaed5146100bc578063b5ecf912146100d8578063cc4596961461010b575b600080fd5b61007660048036038101906100719190610785565b610129565b6040516100839190610a10565b60405180910390f35b6100a660048036038101906100a19190610785565b6101f7565b6040516100b39190610a2b565b60405180910390f35b6100d660048036038101906100d191906107c6565b610290565b005b6100f260048036038101906100ed919061085d565b610477565b6040516101029493929190610a46565b60405180910390f35b61011361065f565b6040516101209190610ae0565b60405180910390f35b60008060005b6000548110156101ed576001600082815260200190815260200160002060020160405160200161015f91906109f9565b604051602081830303815290604052805190602001208460405160200161018691906109e2565b6040516020818303038152906040528051906020012014156101dc576001600082815260200190815260200160002060030160009054906101000a900473ffffffffffffffffffffffffffffffffffffffff1691505b806101e690610ccd565b905061012f565b5080915050919050565b60008060005b600054811015610286576001600082815260200190815260200160002060020160405160200161022d91906109f9565b604051602081830303815290604052805190602001208460405160200161025491906109e2565b60405160208183030381529060405280519060200120141561027557600191505b8061027f90610ccd565b90506101fd565b5080915050919050565b600083511180156102a2575060008151115b6102e1576040517f08c379a00000000000000000000000000000000000000000000000000000000081526004016102d890610ac0565b60405180910390fd5b600015156102ee826101f7565b151514610330576040517f08c379a000000000000000000000000000000000000000000000000000000000815260040161032790610aa0565b60405180910390fd5b60405180608001604052808481526020018381526020018281526020013373ffffffffffffffffffffffffffffffffffffffff1681525060016000805481526020019081526020016000206000820151816000019080519060200190610397929190610665565b5060208201518160010190805190602001906103b4929190610665565b5060408201518160020190805190602001906103d1929190610665565b5060608201518160030160006101000a81548173ffffffffffffffffffffffffffffffffffffffff021916908373ffffffffffffffffffffffffffffffffffffffff1602179055509050507feba3030cce19df68f97d6ca18a28b304b6feb7f71803f02ea1ae0bbb5fbd1a586000548484336040516104539493929190610afb565b60405180910390a160008081548092919061046d90610ccd565b9190505550505050565b600160205280600052604060002060009150905080600001805461049a90610c6a565b80601f01602080910402602001604051908101604052809291908181526020018280546104c690610c6a565b80156105135780601f106104e857610100808354040283529160200191610513565b820191906000526020600020905b8154815290600101906020018083116104f657829003601f168201915b50505050509080600101805461052890610c6a565b80601f016020809104026020016040519081016040528092919081815260200182805461055490610c6a565b80156105a15780601f10610576576101008083540402835291602001916105a1565b820191906000526020600020905b81548152906001019060200180831161058457829003601f168201915b5050505050908060020180546105b690610c6a565b80601f01602080910402602001604051908101604052809291908181526020018280546105e290610c6a565b801561062f5780601f106106045761010080835404028352916020019161062f565b820191906000526020600020905b81548152906001019060200180831161061257829003601f168201915b5050505050908060030160009054906101000a900473ffffffffffffffffffffffffffffffffffffffff16905084565b60005481565b82805461067190610c6a565b90600052602060002090601f01602090048101928261069357600085556106da565b82601f106106ac57805160ff19168380011785556106da565b828001600101855582156106da579182015b828111156106d95782518255916020019190600101906106be565b5b5090506106e791906106eb565b5090565b5b808211156107045760008160009055506001016106ec565b5090565b600061071b61071684610b73565b610b4e565b90508281526020810184848401111561073357600080fd5b61073e848285610c28565b509392505050565b600082601f83011261075757600080fd5b8135610767848260208601610708565b91505092915050565b60008135905061077f81610e06565b92915050565b60006020828403121561079757600080fd5b600082013567ffffffffffffffff8111156107b157600080fd5b6107bd84828501610746565b91505092915050565b6000806000606084860312156107db57600080fd5b600084013567ffffffffffffffff8111156107f557600080fd5b61080186828701610746565b935050602084013567ffffffffffffffff81111561081e57600080fd5b61082a86828701610746565b925050604084013567ffffffffffffffff81111561084757600080fd5b61085386828701610746565b9150509250925092565b60006020828403121561086f57600080fd5b600061087d84828501610770565b91505092915050565b61088f81610be0565b82525050565b61089e81610bf2565b82525050565b60006108af82610bb9565b6108b98185610bc4565b93506108c9818560208601610c37565b6108d281610da3565b840191505092915050565b60006108e882610bb9565b6108f28185610bd5565b9350610902818560208601610c37565b80840191505092915050565b6000815461091b81610c6a565b6109258186610bd5565b94506001821660008114610940576001811461095157610984565b60ff19831686528186019350610984565b61095a85610ba4565b60005b8381101561097c5781548189015260018201915060208101905061095d565b838801955050505b50505092915050565b600061099a601683610bc4565b91506109a582610db4565b602082019050919050565b60006109bd600f83610bc4565b91506109c882610ddd565b602082019050919050565b6109dc81610c1e565b82525050565b60006109ee82846108dd565b915081905092915050565b6000610a05828461090e565b915081905092915050565b6000602082019050610a256000830184610886565b92915050565b6000602082019050610a406000830184610895565b92915050565b60006080820190508181036000830152610a6081876108a4565b90508181036020830152610a7481866108a4565b90508181036040830152610a8881856108a4565b9050610a976060830184610886565b95945050505050565b60006020820190508181036000830152610ab98161098d565b9050919050565b60006020820190508181036000830152610ad9816109b0565b9050919050565b6000602082019050610af560008301846109d3565b92915050565b6000608082019050610b1060008301876109d3565b8181036020830152610b2281866108a4565b90508181036040830152610b3681856108a4565b9050610b456060830184610886565b95945050505050565b6000610b58610b69565b9050610b648282610c9c565b919050565b6000604051905090565b600067ffffffffffffffff821115610b8e57610b8d610d74565b5b610b9782610da3565b9050602081019050919050565b60008190508160005260206000209050919050565b600081519050919050565b600082825260208201905092915050565b600081905092915050565b6000610beb82610bfe565b9050919050565b60008115159050919050565b600073ffffffffffffffffffffffffffffffffffffffff82169050919050565b6000819050919050565b82818337600083830152505050565b60005b83811015610c55578082015181840152602081019050610c3a565b83811115610c64576000848401525b50505050565b60006002820490506001821680610c8257607f821691505b60208210811415610c9657610c95610d45565b5b50919050565b610ca582610da3565b810181811067ffffffffffffffff82111715610cc457610cc3610d74565b5b80604052505050565b6000610cd882610c1e565b91507fffffffffffffffffffffffffffffffffffffffffffffffffffffffffffffffff821415610d0b57610d0a610d16565b5b600182019050919050565b7f4e487b7100000000000000000000000000000000000000000000000000000000600052601160045260246000fd5b7f4e487b7100000000000000000000000000000000000000000000000000000000600052602260045260246000fd5b7f4e487b7100000000000000000000000000000000000000000000000000000000600052604160045260246000fd5b6000601f19601f8301169050919050565b7f436f6e74656e7420616c72656164792065786973747300000000000000000000600082015250565b7f4d697373696e672064657461696c730000000000000000000000000000000000600082015250565b610e0f81610c1e565b8114610e1a57600080fd5b5056fea2646970667358221220587a85d0c472c24ad850718a2cc61259291ea66f7627cc7f56b0838db363f81164736f6c63430008010033",
  "immutableReferences": {},
  "source": "// SPDX-License-Identifier: MIT\r\npragma solidity ^0.8.0;\r\n\r\ncontract EduchainMain {\r\n\r\n    uint public contentCount;\r\n    \r\n    struct Content {\r\n        string course;\r\n        string subject;\r\n        string file;\r\n        address uploader;\r\n    }\r\n\r\n    mapping(uint => Content) public contents;\r\n\r\n    event addedNewContent(\r\n        uint id,\r\n        string course,\r\n        string subject,\r\n        address uploader\r\n    );\r\n\r\n    function getUploader(string memory _file) \r\n        public\r\n        view\r\n        returns(address)\r\n    {\r\n        address uploader;\r\n        for(uint i = 0; i < contentCount; ++i) {\r\n            if(keccak256(abi.encodePacked(_file)) == keccak256(abi.encodePacked(contents[i].file))) {\r\n                uploader = contents[i].uploader;\r\n            }\r\n        }\r\n        return uploader;\r\n    }\r\n\r\n    function contentExists(string memory _file)\r\n        public\r\n        view\r\n        returns(bool)\r\n    {\r\n        bool fileExists;\r\n        for(uint i = 0; i < contentCount; ++i) {\r\n            if(keccak256(abi.encodePacked(_file)) == keccak256(abi.encodePacked(contents[i].file))) {\r\n                fileExists = true;\r\n            }\r\n        }\r\n        return fileExists;\r\n    }\r\n\r\n    function addContent(\r\n        string memory _course, \r\n        string memory _subject,\r\n        string memory _file\r\n    ) \r\n        external \r\n    {\r\n        require(bytes(_course).length > 0 && bytes(_file).length > 0, \"Missing details\");\r\n        require(contentExists(_file) == false, \"Content already exists\");\r\n        contents[contentCount] = Content(_course, _subject, _file, msg.sender);\r\n        emit addedNewContent(contentCount, _course, _subject, msg.sender);\r\n        contentCount++;\r\n    }\r\n}",
  "sourcePath": "D:/Hackathons/Devfolio online/Amithon/test/contracts/EduchainMain.sol",
  "compiler": {
    "name": "solc",
    "version": "0.8.1+commit.df193b15.Emscripten.clang"
  },
  "schemaVersion": "3.4.1",
  "updatedAt": "2022-01-24T14:09:58.079Z",
  "devdoc": {
    "kind": "dev",
    "methods": {},
    "version": 1
  },
  "userdoc": {
    "kind": "user",
    "methods": {},
    "version": 1
  }
}